:020000040000fa
:080000000002040000000000f2
:020000040000fa
:100008009402000094020000940200009402000090
:100018009402000094020000940200009402000080
:100028009402000094020000940200009402000070
:100038009402000094020000940200004c0b00009f
:1000480094020000940200004a0d0000940200008f
:100058009402000094020000940200009402000040
:100068009402000094020000940200009402000030
:100078009402000094020000940200009402000020
:100088009402000094020000940200009402000010
:100098009402000094020000940200009402000000
:1000a80094020000940200009402000094020000f0
:1000b80094020000940200009402000094020000e0
:1000c80094020000940200009402000094020000d0
:1000d80094020000940200009402000094020000c0
:1000e80094020000940200009402000094020000b0
:1000f80094020000940200009402000094020000a0
:10010800940200009402000094020000940200008f
:10011800940200009402000094020000940200007f
:10012800940200009402000094020000940200006f
:10013800940200009402000094020000940200005f
:10014800940200009402000094020000940200004f
:10015800940200009402000094020000940200003f
:10016800940200009402000094020000940200002f
:10017800940200009402000094020000940200001f
:10018800940200009402000094020000940200000f
:1001980094020000940200009402000094020000ff
:1001a80094020000940200009402000094020000ef
:1001b80094020000940200009402000094020000df
:1001c80094020000940200009402000094020000cf
:1001d80094020000940200009402000094020000bf
:1001e80094020000940200009402000094020000af
:0801f8009402000094020000d3
:020000040000fa
:10020800940200009402000094020000940200008e
:10021800940200009402000094020000940200007e
:10022800940200009402000094020000940200006e
:100238009402000094020000940200004c0b00009d
:1002480094020000940200004a0d0000940200008d
:10025800940200009402000094020000940200003e
:10026800940200009402000094020000940200002e
:10027800940200009402000094020000940200001e
:10028800940200009402000094020000940200000e
:1002980094020000940200009402000094020000fe
:1002a80094020000940200009402000094020000ee
:1002b80094020000940200009402000094020000de
:1002c80094020000940200009402000094020000ce
:1002d80094020000940200009402000094020000be
:1002e80094020000940200009402000094020000ae
:1002f800940200009402000094020000940200009e
:10030800940200009402000094020000940200008d
:10031800940200009402000094020000940200007d
:10032800940200009402000094020000940200006d
:10033800940200009402000094020000940200005d
:10034800940200009402000094020000940200004d
:10035800940200009402000094020000940200003d
:10036800940200009402000094020000940200002d
:10037800940200009402000094020000940200001d
:10038800940200009402000094020000940200000d
:1003980094020000940200009402000094020000fd
:1003a80094020000940200009402000094020000ed
:1003b80094020000940200009402000094020000dd
:1003c80094020000940200009402000094020000cd
:1003d80094020000940200009402000094020000bd
:1003e80094020000940200009402000094020000ad
:0803f8009402000094020000d1
:020000040000fa
:10040000af8820000e8f20000e0188000000000041
:1004100000012000200288000c000700a0f220004c
:100420000100200011000700000020000000e00093
:1004300002003200000002000000000086080200f6
:10044000000000000040da000000fe004440a90067
:10045000000020000000e000030032000000200047
:10046000a00188004440a800000006009101880017
:10047000800078000000eb0015003700e2804000ab
:1004800032a0b4009101ba00e280400032a0b40072
:100490009102ba00e280400032a0b4000002eb00fa
:1004a000472bde00f507b200602ce10004003a00a3
:1004b0000059eb008301e900fdff3e000400370016
:1004c0006128e100010032000082eb000400070017
:1004d0001101ba000200e000e8ff3a000000060047
:1004e0003159ba008301e9000c0032002159ba00e9
:1004f0008301e900080032000400e00003003a0034
:10050000e280400032a0b400f5ff370011d9ba00f4
:100510008301e900faff3a008100e800e180400031
:1005200032a0b400000006000040da000000fe0027
:100530000400fa00000f7800110798000002eb0099
:10054000340888001e029000640888001e027800ab
:10055000840888000080fa00000006000200fa000b
:10056000000f780084e0a9001e02780004427800a1
:100570006742620067426200674262000482fb00d9
:10058000670262004c22dd0036058000f5ff28007e
:100590008502630004827200340588009e027800a0
:1005a000688262004322de000442780061426200f9
:1005b0000482fb00610262004722dd00a604800085
:1005c000f5f72f008502630004827200a4048800fe
:1005d0000080fa00000006000000fa0094e0a90084
:1005e00011e1a90084e0a9000080fa0000000600e3
:1005f0000000fa0034088000040078000080fa004f
:10060000000006000200fa00000f78001e027800c9
:10061000340888000080fa00000006000000fa009c
:1006200084e0a9000080fa00000006009460a900a0
:1006300005e1a9008460a900000006008460a9000b
:10064000e7026000cc2add00f4ff280026058000c8
:10065000060262000502720024058800680060003e
:1006600074ff2f00a50480000502620000007200e4
:10067000a0048800000006000021ef001108880097
:10068000200888000000060003f0a200889fbe003a
:100690008a9fbe008c1f7800070107000e013300ff
:1006a0006450e1004f0032006420e100520032004b
:1006b00003826c0007003b000905d0000306d00050
:1006c000820f54000c065d00020039000200320067
:1006d00089017800030678008582550004003d00fa
:1006e0000003fd008103fd008502ea008b854200c6
:1006f000840f720002003b0060001000e0801800d0
:100700006011b8000005eb007a28e1000a0039000a
:1007100006007800c75ddd00f707b200878075002e
:100720002d003700828171000a01780061056000a8
:100730008180d1000080d3008502e900f9ff3b00f1
:10074000060440008784480002003b006004140057
:10075000e0841c000988a300070032008a81710030
:1007600082817100610164008904d1000884d30092
:100770008b05e800170037000978a30013003a0042
:100780000b00e000130034008b05e900080444006e
:1007900089844c000a4474000978a3000d003a00d3
:1007a0000b00e000070034008b05e900080444005a
:1007b00089844c0001003a000b0020000978a30056
:1007c000f7ff32000001eb00020037008281710068
:1007d0000a0178007d0007000cf0a70001f0a000de
:1007e000c60037006420e10002003a00838f6c00ed
:1007f000c60033000801be000200be00bf00370083
:10080000889fbe008a9fbe008c1f7800aa00070048
:10081000b100330003866c006450e1002e0032000a
:100820006420e100330032006150e1002f0032000b
:100830006120e1003100320085855500eb07b000f2
:1008400009002000080420000500370008044400c7
:1008500089844c000a0031000603430087834b0063
:100860000001530081815b00f8ff33000203be00ea
:100870000800a0000804440089844c00f6ff3900f9
:10088000c639dd008301730001003200130020002f
:100890008904d1000884d3000998a3000500320020
:1008a0000800a7000300a0008904d1000884d30039
:1008b0008b05e8008904d1000884d3000001eb0017
:1008c0000281d2004100070001f0a1000cf0a70056
:1008d00001f0a000890037006420e1008b003200a5
:1008e0000801be000200be00f7ff37006120e100f2
:1008f000860032006000b800f3ff370000002000df
:1009000001f82700f0ff3700839f68000100e00036
:1009100002003d0060001000e08018000300e000cd
:1009200002003d0060011100e0811900b0000700e5
:100930004f00e00002003b0060001000e080180063
:1009400000000600f4ff2f00b90037000001be00d0
:10095000440007000470a70003f0a10003f8a300ff
:1009600013003a006509b10010003200090035009b
:100970006928e100020035000100280000000500a0
:1009800000004000818048008502e900fcff3a0039
:1009900000000600f88f4200050035008100d100fc
:1009a0000080d3008502e800fcff3a00000006004a
:1009b0008000eb00000005004f89de008201780016
:1009c000b60037006011b800c40037008100200075
:1009d000618055000b003d000b00200061fe2f00e0
:1009e0000100e1001d00340082817100610164009a
:1009f0008904d1000884d3000000e800faff3a001f
:100a000071002000610064000300700002006000bb
:100a10000900320061044400e0844c000988a5000c
:100a2000050032008b05e8006808e10002003a008a
:100a30008904d1000884d300f20f20000258e1009d
:100a400005003d00c75ddd00f907b2008980750033
:100a500008007800000006000bf827008b007800e3
:100a600000000500c70ade00f107b200f50fb20072
:100a700008003200e1cf4200020032000170a00005
:100a800024000500810f70000100320004080500f9
:100a900044000500810f700002003a0014000500b8
:100aa0008502e9000000400081c04800fcff3b00d7
:100ab0000170a000240005000004be00e9ff07004b
:100ac0000003be000405be000200be00e5ff0700f3
:100ad000844f7500000006000200be006450e10073
:100ae000050036006420e100020036000968a3001a
:100af00001003a000800be000160a0004f06780027
:100b00004f05be004f04be0000000600f0ff2f009e
:100b1000f1ff2700f9ff3700889fbe008a9fbe00c3
:100b20008c1f7800e4ff0700ebff330003866c00a6
:100b30006450e100240032006420e100270032000c
:100b40006150e100220032006120e100210032000a
:100b50008b854200eb07b1000134b800003ab800c1
:100b60000804420089844a00013ab8000030b80005
:100b70008880400009014a00040033000000400062
:100b800081804800020149008b05e900c909dd00a8
:100b9000830170000100320013002000c814de0041
:100ba0004814dd004709de001200b200c808de006c
:100bb0000884700085ff070001f0a1000cf0a70079
:100bc00001f0a000cdff37006120e100cfff32002f
:100bd0000801be000200be00f7ff37006150e100cf
:100be000fcff3a00c9ff37000001eb006a00370044
:100bf0006022b800060220000000d0008180d200f0
:100c00000482d2008582d2000000a00002025200bd
:100c100083825a00030031000202420083824a00ac
:100c20000000a1000603e900f3ff3a0000000600ff
:100c3000889fbe008a9fbe00841f78009eff070029
:100c40004f00780011003300f0ff2f00838f6c00fd
:100c500006003b00040565000a00a70008003700f5
:100c600009f0a6001000200008003700820f540091
:100c7000838f5c00030039001000200001003e005b
:100c80000000200009f0a7000000ea004f05be00a8
:100c90004f04be000000e00000000600881f78003e
:100ca000030478000300e00007003d00600010002e
:100cb000e080180060011900e081190002003b008b
:100cc00001f02d00030037000400070008f0a70022
:100cd00001f0a0004f04780000000600889fbe00cd
:100ce0008a9fbe00008270000402710004827100bd
:100cf000260032000004be000200be006011b800f1
:100d00006b092000950220000182cf000a00390003
:100d10000541b1000082cf00070039000541b10054
:100d20000982cf00040039000541b1000882cf00dc
:100d3000010039000541b1000542520012003200a5
:100d40000a003b0082817100610164008100d100d2
:100d50000080d3008984d3000884d3008b05e80089
:100d60000442e800f7ff3a00070037000804440097
:100d700089844c0000004800818048008b05e90010
:100d80000442e900f9ff3a0010ff07004f05be00da
:100d90004f04be0000000600889fbe008a9fbe0070
:100da0008c9fbe00820578000004be002dff070066
:100db0000800be006420e1000700390002003a008c
:100dc000f1ff2700f0ff2f000160a00012022000b9
:100dd00042448800550037006120e10003003a00da
:100de0000b00a70001f823005000370001f0a1001c
:100df0000200210093642400500007000800be0098
:100e000004003500b2fd2000930c24006e000700a2
:100e10000004be000005eb000b00a6004f0dde0035
:100e200001f0a1000004be0032982f0023ea230045
:100e300039ff07000001eb0003f023000b00a700bf
:100e400003f8230011fe07003e0007000000a70082
:100e50000a00a200d8fe07000b00e00003003200e9
:100e60000200200003f0230007fe070001f0a200ab
:100e70000006be00020020009304240026ff0700a5
:100e80000801be0001fe0700809fbe000c00be00ee
:100e900022a22a00d3a723001fff07004f01be0094
:100ea000fafd07000004be0001f0a10002002000ce
:100eb00003982300210007000800be001900350038
:100ec0000001be0014ff07000006be00b2c52900e5
:100ed000e362230010ff070022222b00f3942b0073
:100ee000eafd07000c01be000bff0700e2732800bb
:100ef00083c02300e5fd07000c01be0006ff0700cc
:100f000042aa2a00a3e22b00e0fd07000c01be006c
:100f100001ff07000801be00fffe07000801be0038
:100f2000dafd07000a00a70001f0a2004f06be008c
:100f30004f05be004f04be00000006001400200054
:100f40003bff37000001be00c6fe07000470a7008b
:100f500003f0a1006509b100160032000d00350054
:100f60006828e10006003500f0ff2f00f1ff2700a0
:100f70000300e00013003b00010028000000050012
:100f800000004000818048008502e900fcff3a0033
:100f900008003700f88f420002003c008000eb00a0
:100fa000000005008100d1000080d3008502e80028
:100fb000fcff3a000300e00002003b00600010006c
:100fc000e080180000000600040020000000370048
:100fd000889fbe008a9fbe008c1f78004f26dd00d0
:100fe000b5fe0700bcfe33006120e1004300320083
:100ff0006250e10041003e003e0039006420e10003
:101000003c003200058255000f003b000402e8005e
:1010100038003a00800f5300818f5b0035003400a8
:101020000800be0003f0a10001f0a60003f0a0003c
:101030000cf0a70095fd0700b0fe37000603430043
:1010400087834b000c4646000005530081855b00fa
:10105000020033000a03be000c00a0000402e900f5
:10106000f6ff3b00850578000602430087824b00af
:1010700004003a006000b80009f0a70001f0a000e9
:101080009efe37000002520081825a000704e000f1
:10109000040033000603430087834b008b05e900ff
:1010a000faff3700090578000604be000203be00ff
:1010b0006011b80045fe0700e00f5200e08f5a00b3
:1010c0000700350002003c000c08a30004003200b9
:1010d0000601be0003f0a0000cf0a7006bfd0700a6
:1010e0000a85680001f0a1000af0a70001f0a00045
:1010f00082fe37000800be0080fe3700100220008c
:0c1100000cf0a6004044880080fe370080
:020000040000fa
:10110c000c00fa00889fbe0094022000343a88003c
:10111c00243a80000460a1000470a100243a8800e5
:10112c00253a800004fe2f0004826200243a8800d5
:10113c001600200084072000a50920003774200029
:10114c00844b7800854b7800864b78001600200085
:10115c00640420007505200027742000844b78005f
:10116c00854b7800864b780000000000153a800013
:10117c00040027008482620004002100848f520046
:10118c00faff3a0000000000153a8000040220002b
:10119c0004826200e00f5200fbff320050c7a8002f
:1011ac0051a7a800843a80000480a0000490a000fd
:1011bc0004a0a000843a880051e7a80000000000b9
:1011cc00853a80000400240004826200e00f520083
:1011dc00fbff32000002eb00140798000082eb00ca
:1011ec0014188800c802a8008080eb0000032800b7
:1011fc00ccfc07000000000034088000f10f420016
:10120c00fdff36009f0007004535800004fc2f00d1
:10121c00048262000420a00044358800453580001b
:10122c00f40f2c00848262000450200004827200af
:10123c004435880095368000f40f2c0084826200bf
:10124c0004702000048272009436880055358000aa
:10125c0004fc2f0004826200543588000002eb006d
:10126c00040f78000002eb00040f78001d0037001b
:10127c001e027800cfa2de000400be00cbfd0700ea
:10128c000002be00b2fd200093fc23000400be004f
:10129c001efe07000002be000404be00c443800012
:1012ac00cfa2de000400be00c0fd07000002be009d
:1012bc000401be000800be004efd07000002be0087
:1012cc000400be0045fe07000002be001e037800ad
:1012dc00c233dd000680200006834300048bbe0071
:1012ec001e0fe800c44380009e027800848f5200d9
:1012fc00dfff350034438000050020000400be00f1
:10130c00adfd07000002be000401be00008c2800e9
:10131c00117f240037fd07000002be00a4438800a3
:10132c00b5438800a4438000b543800018c0b300c7
:10133c00028c2800137f24000400be007efd0700f1
:10134c0000027800e00f520001003c000044eb006a
:10135c00e04f540004003200048c2800157f240058
:10136c00a4438800b5438800a000200078fc070047
:10137c00a4438000b5438000120020000400be008e
:10138c00760207000002be00040278008400780098
:10139c000000280063fc0700a101070004002000e6
:1013ac00853c240024079800350798001400200081
:1013bc00440798001400200054079800354380001f
:1013cc0044438000848f52002c0032007ffc0700c5
:1013dc0034438000050020000400be0076fd0700a9
:1013ec000002be000401be00008c2800117f240006
:1013fc0000fd07000002be00a4438800b54388002e
:10140c003443800044438800a4438000b5438000eb
:10141c0018c0b300028c2800137f24000400be0007
:10142c0045fd070000027800e00f520001003c006f
:10143c000044eb00e04f540004003200048c280000
:10144c00157f2400a4438800b5438800a000200029
:10145c003ffc0700a4438000b5438000120020002d
:10146c000400be003d0207000002be00040278002a
:10147c0084007800000028002afc07000060fe00b1
:10148c00ceff37000400fa0001e4a90054532000f9
:10149c0005002000048fbe00142080000400a10071
:1014ac000410a1000420a100142088001e02780062
:1014bc002420880025208000840c200011000900c5
:1014cc008482d80000027800244388002403200082
:1014dc005421880024032000642188000002eb00c2
:1014ec0004218800242080004421880024208000ce
:1014fc008421880024208000050020000400be0008
:10150c002dfd07000002be00d2cc2c00c3e423004a
:10151c000400be007dfd07000002be000400be00fa
:10152c0007fd07000002be00040278003421880089
:10153c001421800004a0a10004b0a1001421880093
:10154c0021a4a90021e4a90021c4a90023c4a80056
:10155c0023e4a8000164a9008fc0a90094068000b0
:10156c000480a0000490a00004a0a10094068800b0
:10157c001e027800942188009fc0a9002144a90074
:10158c0001a4a80001e4a8000080fa0000000600f5
:10159c000400fa0001e4a9005453200005002000c7
:1015ac00048fbe00142080000400a1000410a100d0
:1015bc000420a100142088001e027800242088003a
:1015cc000002eb00542188000002eb00642188002b
:1015dc000002eb00042188002420800044218800b4
:1015ec0024208000842188000002eb003421880034
:1015fc0024208000050020000400be00eefc070043
:10160c000002be00d2cc2c00c3f423000400be00a8
:10161c003efd07000002be000400be00c8fc07002f
:10162c000002be000402780074218800142180009e
:10163c0004a0a00004b0a0001421880021a4a900db
:10164c0021e4a90021c4a90023c4a80023e4a80014
:10165c000164a9008fc0a900940680000480a0003a
:10166c000490a00004a0a100940688001e0278003b
:10167c00942188009fc0a9002144a90001a4a800be
:10168c0001e4a8000080fa00000006003600f80013
:10169c00809fbe00829fbe00849fbe00869fbe00be
:1016ac00889fbe008a9fbe003400f8000000200016
:1016bc00a00188000000fa00d5438000c4438000dc
:1016cc00848f520022003d0024438000cfa2de0014
:1016dc000400be00b5fc07000004be00d44380002b
:1016ec00c222dd0004802000048242001405be00ea
:1016fc0054438000050020000400be00aefc07002f
:10170c000002be000401be000a00be00fffc070080
:10171c000002be0002002000832c24000400be0046
:10172c00d7fb07000002be000401be000800be008b
:10173c00f6fc07000002be000400be0080fc07009f
:10174c000002be00040278003421880089003700b2
:10175c00c44380000402420084027800d443800019
:10176c00848f52002600340024438000cfa2de0078
:10177c000400be008dfc07000004be00c4438000c2
:10178c00040242008402e900d44380000482520027
:10179c00c222dd0004802000048242001405be0039
:1017ac0054438000050020000400be0082fc0700aa
:1017bc000002be000401be000a00be00d3fc0700fc
:1017cc000002be0002002000832c24000400be0096
:1017dc00abfb07000002be000401be000800be0007
:1017ec00cafc07000002be000400be0054fc070047
:1017fc000002be0004027800342188005d0037002e
:10180c00c44380006322b90084027800d443800072
:10181c00848f52002900340024438000cfa2de00c4
:10182c000400be0061fc07000004be00c54380003c
:10183c00e4ff2f0004aab90084027800d44380008e
:10184c0004824200c222dd00048020000482420097
:10185c001402be000405be000bf0a200544380002d
:10186c00050020000400be0053fc07000002be006f
:10187c000401be000a00be00a4fc07000002be006a
:10188c0002002000832c24000400be007cfb070017
:10189c000002be000401be000800be009bfc070055
:1018ac000002be000400be0025fc07000002be00c2
:1018bc0004027800342188002e003700c4438000d5
:1018cc00c222dd00d4438000848f520027003400f4
:1018dc0024438000cfa2de000400be0033fc0700ce
:1018ec000004be00c4438000c222dd00d44380004b
:1018fc0004825200c222dd000480200004824200d7
:10190c001402be000405be000bf0a200544380007c
:10191c00050020000400be0027fc07000002be00ea
:10192c000401be000a00be0078fc07000002be00e5
:10193c0002002000832c24000400be0050fb070092
:10194c000002be000401be000800be006ffc0700d0
:10195c000002be000400be00f9fb07000002be003e
:10196c000402780034218800020037000002eb00ea
:10197c0034218800c44380008402e900d4438000f1
:10198c00848f52000d003200c443800004024200d8
:10199c008402e900d4438000848f52000700320097
:1019ac00c44380006322b900040278008402e90079
:1019bc00d4438000848f520004003a00d44380004a
:1019cc000482e800d443880003003700d44380002d
:1019dc000402e800d4438800c4438000c222dd0026
:1019ec00d4438000848f520002003c00140020007d
:1019fc00d443880084e0a9000080fa003400f90088
:101a0c004f05be004f04be004f03be004f02be0088
:101a1c004f01be004f00be003600f900004006002a
:101a2c000000fa000002eb00441288008540a90077
:101a3c009540a800440580000480a1000490a000fb
:101a4c0004a0a00044058800a46d20001412880096
:101a5c004322a9004302a90042c2a80042e2a80006
:101a6c000400240024128800c40020000412880002
:101a7c0040c2a9008540a9009540a80041e2a800f9
:101a8c000080fa000000060000a0fe00849fbe004b
:101a9c003400f80004002000a40188000200fa00c1
:101aac000412800061026200e00f520005003a004f
:101abc00000000000412800061026200e00f52007e
:101acc00fcff320044128000040f780004002f0049
:101adc009e02620004002100848f52000e003a0026
:101aec00f4ff20001e02620054438800554380001e
:101afc0044062000848f5200030036004406200068
:101b0c005443880001003700544380005443800044
:101b1c00441288001b00370004002f009e02620054
:101b2c0004002200848f520012003a00f4ff2000bf
:101b3c001e0262003443880035438000047d20007f
:101b4c00848f520003003600047d2000344388004b
:101b5c000500370034438000e00f520002003a00c9
:101b6c001400200034438800344380004412880061
:101b7c00040037002403200024448800c4f92f00fb
:101b8c0034448800051280000404200004826200a2
:101b9c00e00f520002003200840c20003444880014
:101bac008540a90040c2a9000080fa003400f90069
:101bbc004f02be000080fe00004006000800fa0044
:101bcc0030079800be029000041920001100090093
:101bdc008402d80000027800140798000002eb0081
:101bec00040f78001b0037003e029000cfa2de00ed
:101bfc000400be006dfb07000002be0002042000c2
:101c0c000400be00350007000002be00040278008c
:101c1c00840078000002280094fa070010002000cd
:101c2c0083fa070001003700000000002404800044
:101c3c004322de00614262000482fb00240798000c
:101c4c002e029000e10f5200f7ff3a0074fa0700e1
:101c5c001e0fe8001e0290009e027800848f520036
:101c6c00e1ff34000080fa00000006000400fa00d6
:101c7c00100798001e0290006522b900040278003b
:101c8c00040f78009e02900004712200848f520091
:101c9c00020036000082eb000d0037000000eb0064
:101cac0063fa07008460a9009e00780000012800f8
:101cbc006efa070000000000240480006802620035
:101ccc00e00f5200fcff320055fa07001400200010
:101cdc00040078000080fa00000006000a00fa00f8
:101cec002007980031079800420798004e02900098
:101cfc00cfa2de000401be0000d022001113200090
:101d0c00fefa07000002be000400be0027fb07001d
:101d1c000002be002e019000be0190000400be0027
:101d2c007afb07000002be0002002000a34724003b
:101d3c000400be00affa07000002be000400be00a3
:101d4c00fffa07000002be00048fbe001e02be0098
:101d5c000400be000080fa00000006000a00fa0031
:101d6c002007980031079800420798004e02900017
:101d7c00cfa2de000400be000cfb07000002be0078
:101d8c000401be000068290081b9240099fa0700fb
:101d9c000002be002e019000be0190000400be00a7
:101dac005afb07000002be000240220043972400a9
:101dbc000400be008ffa07000002be000400be0043
:101dcc00dffa07000002be00048fbe001e02be0038
:101ddc000400be000080fa00000006000a00fa00b1
:101dec002007980031079800420798004e02900097
:101dfc00cfa2de000401be0000d02200111320008f
:101e0c00befa07000002be000400be00e7fa07009d
:101e1c000002be002e019000be0190000400be0026
:101e2c003afb07000002be000400be00c4fa070023
:101e3c000002be00048fbe001e02be000400be00e5
:081e4c000080fa00000006000e
:020000040000fa
:101e540066080000220000000200000001000100ea
:101e64000000000001000000000040009c4500004c
:101e74000000000005000000000000000000000059
:101e84000000000000000000000000000008000046
:101e94006600000000000000880800000200000046
:081ea400000000000000000036
:020000040000fa
:101eac000200fa00000f78000080fa000000060023
:020000040000fa
:0200000401f009
:04000c00f8ff0000f9
:020000040000fa
:0200000401f009
:040010007bff000072
:020000040000fa
:0200000401f009
:040014007fff00006a
:020000040000fa
:0200000401f009
:04001800ffff0000e6
:020000040000fa
:0200000401f009
:04001c00dfff000002
:00000001FF
