:020000040000fa
:080000000002040000000000f2
:020000040000fa
:10000800940300009403000094030000940300008c
:10001800940300009403000094030000940300007c
:10002800940300009403000094030000940300006c
:10003800520300009403000094030000940300009e
:10004800e002000094030000940300009403000001
:100058009403000094030000400300009403000090
:100068001042000094030000940300009403000071
:10007800940300009403000094030000940300001c
:100088009403000094030000940300000803000098
:10009800240300009403000094030000940300006c
:1000a80094030000940300009403000094030000ec
:1000b80094030000940300009403000094030000dc
:1000c80094030000940300009403000094030000cc
:1000d80094030000940300009403000094030000bc
:1000e80094030000424300009403000094030000be
:1000f800940300009403000094030000940300009c
:10010800940300009403000094030000940300008b
:10011800940300009403000094030000940300007b
:10012800940300009403000094030000940300006b
:10013800940300009403000094030000940300005b
:10014800940300009403000094030000940300004b
:10015800940300009403000094030000940300003b
:10016800940300009403000094030000940300002b
:10017800940300009403000094030000940300001b
:10018800940300009403000094030000940300000b
:1001980094030000940300009403000094030000fb
:1001a80094030000940300009403000094030000eb
:1001b80094030000940300009403000094030000db
:1001c80094030000940300009403000094030000cb
:1001d80094030000940300009403000094030000bb
:1001e80094030000940300009403000094030000ab
:1001f800940300009403000094030000940300009b
:10020800940300009403000094030000940300008a
:10021800940300009403000094030000940300007a
:10022800940300009403000094030000940300006a
:10023800940300009403000094030000940300005a
:10024800940300009403000094030000940300004a
:10025800940300009403000094030000940300003a
:020000040000fa
:100400006f6321000eff26000e018800000000002f
:1004100000012000200288000c000700c016230005
:10042000010020000f000700000020000000e00095
:10043000020032000000020000000000141102005f
:10044000000000000040da000000fe002000200054
:100450000000e0000200320010002000900188003f
:1004600000000600a1028800800078000000eb0078
:100470001a003700e280400054a0b4009101ba0095
:10048000e280400054a0b4009102ba00e280400033
:1004900054a0b4000002eb00472bde00f507b200c9
:1004a000a6018800602ce10008003a000049eb003a
:1004b0000201e800020039003420ec0002f0a00044
:1004c0008301e900f9ff3e00040037006128e100e4
:1004d000010032000082eb00040007001101ba00a5
:1004e0000200e000e3ff3a000000060004d0a30091
:1004f000e20f49001c003900810278003549ba003a
:100500000201e800020039003420ec0002f0a000f3
:100510008301e9000f0032002549ba000201e8001a
:10052000020039003420ec0002f0a0008301e90051
:10053000080032000400e0000600320015c9ba00cd
:100540000201e800020039003420ec0002f0a000b3
:100550008301e9008180e80054a0b4000300e000ba
:10056000e2ff3a00000006009102ba000559780047
:100570008301e900f7ff3200c82ade000559780040
:100580008301e900f3ff32000400e000f1ff3200d4
:1005900011d9ba00eeff37002a2104000000000044
:1005a00008190400000000005e21040000000000a3
:1005b000a4200400000000008022040000000000cd
:1005c0003600f800809fbe00829fbe00849fbe0060
:1005d000869fbe003200f8001000200090018800c5
:1005e000000000000000fa00242a07000108a9000a
:1005f0000080fa003200f9004f03be004f02be0037
:100600004f01be004f00be003600f900004006005a
:10061000849fbe003200f80014002000940188007e
:10062000000000000000fa004583270014c0b3005a
:10063000844a78000368a9000080fa003200f900bb
:100640004f02be0000400600849fbe003200f8004a
:100650001400200094018800000000000000fa004f
:100660005583270014c0b300844a78000388a9008a
:100670000080fa003200f9004f02be000040060080
:10068000841f78000000fa0064c183000402e800bf
:1006900064c18b0001c8a9000080fa004f027800f5
:1006a000004006003600f800809fbe00829fbe001a
:1006b000849fbe00869fbe000600fa0004dd830012
:1006c00015dd8300048fbe0025dd8300250798001b
:1006d00054c183000402e80054c18b00472907007d
:1006e0001e0078009e0090002e01900080290700d7
:1006f000258327000042eb00844a780035832700d9
:1007000014c0b300844a78000088a9000080fa0071
:100710004f03be004f02be004f01be004f00be009f
:100720003600f900004006000040da000000fe003c
:100730003200f80001c0fe004600f8005000f8004a
:10074000022020003202880002002800130020004e
:100750008019dd00028171008202880001007800aa
:100760000101780026002000470020008301e900f5
:1007700003800800070000000110e10004003400bd
:100780001102be0092087800e2307b000489be00ae
:1007900087804000121978005000f9004600f900e7
:1007a0003200f90000000600889fbe008a9fbe004c
:1007b0008c9fbe008e1f78004400f800070f2000b9
:1007c000270288003200f800811f78000f077800a8
:1007d00007f02f000338e1004800320003d0fe008c
:1007e000040180008ddf8300050025001900200032
:1007f000804cdd008904d0000f85440008003100e2
:1008000005055500060031008d84440004003100c8
:100810008f84440002003100848654003000390087
:1008200019002000804cdd00130020000204780035
:10083000800678008904d100424edd000105780071
:100840000302e9000480080020000000000000000e
:100850008a0546004218dd000902e900048008000c
:1008600018000000000000004620c3003200f8001d
:1008700001c0fe00000000003b0252003200f900ff
:10088000df35c100080440001381c2003200f800c7
:1008900001c0fe0000000000ab825200264dc500e2
:1008a0003e85c400bb00cd00bb80cd003a00ca002d
:1008b0002a80ca003200f9000700c9000580c9007b
:1008c000ba00cd00ba80cd000a05460002047800c7
:1008d0008301d0008d06e900d6ff3c002f003700d1
:1008e00019002000804cdd000f0478008906e90023
:1008f0000d800900b21f78000801780001c0fe00d9
:1009000019002000804cdd00130020000204780054
:10091000800678008904d100424edd000105780090
:100920000302e90004800800180000000000000035
:100930008a0546004218dd000902e900048008002b
:1009400010000000000000004620c3003b025200df
:10095000df35c100080440001381c200ab825200a1
:10096000264dc5003e85c400bb00cd00bb80cd0038
:100970003a00ca002a80ca000700c9000580c900e1
:10098000ba00cd00ba80cd000a0546000204780006
:100990008301d0008d06e900deff3c008e07780061
:1009a0004f0078003200f9004400f9004f0778004a
:1009b0004f06be004f05be004f04be0000000600fb
:1009c000f2874700889fbe008a9fbe008c9fbe00b2
:1009d0008e1f780091b79f00020578001c00200050
:1009e0000066dd0022002000110009000206d80088
:1009f000000678000000200001f82300ab0007008b
:100a00009fb09700800878000001eb0092009800ea
:100a10006160b900f10307000001be00b0fd2000d5
:100a200091042400d30207008004780001047800b8
:100a30000900780088007800cc020700c0b79f004a
:100a4000b1b79f00e00f5500910032000801be00d1
:100a50000300780082007800010507000005be0051
:100a60000c83e900830033001fb09700640040004e
:100a7000f0b79f008a0678000b077800cfb0970088
:100a8000e1b79f003fb09700d0b79f000001be00c4
:100a9000030078008200780086bf9f008300070073
:100aa000ffb09700800878000d0078008e00780075
:100ab0007e000700ffb0970090009800e48040009f
:100ac000f1b79f00cfb197003fb1970003027800c4
:100ad000820278000401be006fb29700dfb2970077
:100ae0000400be00410407000004be000a01be006d
:100af0000d0278008e0278000400be003b0407005f
:100b00000001be000800be0032020700a0b79f002f
:100b1000010678004fb19700bfb197000202be00f6
:100b20000401be000d0278008e0278000400be00b1
:100b30002e04070080047800010478000a01be003a
:100b40006fb29700dfb297000400be0027040700d1
:100b50000801be0003027800820278000401be0092
:100b60001d02070080067800010778000fbb970080
:100b70000603e9003f003300afb09700e1b79f00e4
:100b8000dcb79f00810178000c0178000300780039
:100b90008200780086bf9f0044000700ffb09700e6
:100ba000800878000d0078008e0078003f00070074
:100bb000ffb0970090009800e4804000f1b79f00dc
:100bc000cfb197003fb1970003027800820278000e
:100bd0000401be006fb29700dfb297000400be00b0
:100be000020407000004be000a01be000d027800e6
:100bf0008e0278000400be00fc0307000001be0066
:100c00000800be00f3010700a0b79f0001067800ae
:100c10004fb19700bfb197000202be000401be00b1
:100c20000d0278008e0278000400be00ef0307007a
:100c300080047800010478000a01be006fb29700ba
:100c4000dfb297000400be00e80307000801be0001
:100c500003027800820278000401be00de01070072
:100c600080067800010778000fbb97000603e900b3
:100c7000c1ff3b001fb097004f0778004f06be0032
:100c80004f05be004f04be002f01b100000006005a
:100c90000801be000300780082007800700407009d
:100ca0000005be000bf0a2006dff3700ea87470089
:100cb000889fbe008a9fbe008c9fbe008e1f78005a
:100cc0000004be000200200003702400c7030700d8
:100cd00080067800010678006011b8000800be00a8
:100ce00000030700e00f50003b0035000d007800c6
:100cf0008c0078003e030700fc0207000003780028
:100d000001077800060078008e00780086bf9f00fb
:100d1000320307000004be000200200003f023009d
:100d2000b2030700f0b79f00e1b79f003003070050
:100d30000005be000801be000d0078008c0378009d
:100d400000027800870278000400be00a1010700bd
:100d500080067800010678000200200003f02300de
:100d60000d0278008c0278000400be00dd0207004e
:100d700000017800e00f51007f00340002002000e5
:100d800003f823000800be0093010700d702070004
:100d90000003780001077800860178000e017800d2
:100da0000300780082007800f2ff2700820f5000d5
:100db000e08f580002003400f0ff270001002000ff
:100dc0004f0778004f06be004f05be004f04be001f
:100dd000af00b100000006000d0078008c00780024
:100de000da010700c1020700f0b79f000107780091
:100df0008e007800f90207000004be000d017800a3
:100e00008c0178000800be00010307000001780093
:100e1000e00f51000a0032000200200003f8230016
:100e20000800be006b010700b0020700f0b79f008a
:100e3000010778008e007800e80207000004be0079
:100e40000200200003f023000800be006703070033
:100e5000e0b79f00d1b79f00e50207000005be0084
:100e60000801be000c03be0007027800860278006d
:100e70000400be00570107008006780001067800d4
:100e80000200200003f023000d0278008c0278009d
:100e90000400be009302070000017800e00f51003b
:100ea000180034000200200003f823000800be00f0
:100eb000490107008d020700f0b79f000107780085
:100ec000ffb197000e0178000300780082007800df
:100ed00002002800f3ff2f00820f5000838f58007c
:100ee000b7ff3d000200be004f0778004f06be006e
:100ef0004f05be004f04be00af00b1000000060069
:100f0000b5ff37000200200003f023000c00be00f4
:100f100001027800800278000400be006f02070022
:100f200000067800e00f5600e5ff3a000a01be0017
:100f3000efb297005fb29700050078008400780058
:100f4000240107000001be0023010700670207001b
:100f50008c0f5000daff32000200200003f823005b
:100f60000800be001c01070060020700f0b79f00e8
:100f700001077800d2ff37000200200003f02300b1
:100f80000c00be0001027800800278000400be0060
:100f900052020700000678000fbb9700e00f5600d2
:100fa0007dff3a000a01be00ffb297006fb29700c2
:100fb0000500780084007800060107000001be00eb
:100fc00005010700490207000fbb97008c0f500076
:100fd00071ff32000200200003f823000800be0069
:100fe000fd000700410207000003780001077800b8
:100ff00069ff37000400fa00000f7800110798001d
:101000000002eb00340888001e029000640888008b
:101010001e027800840888001061a9000080fa0090
:10102000000006000200fa00000f780000e8a900a6
:101030001e02780004427800674262006742620044
:10104000674262000482fb00670262004c22dd00fe
:1010500016428000f5ff28008502630004827200ba
:10106000144288009e027800688262004322de00fb
:1010700004427800614262000482fb006102620067
:101080004722dd0006418000f5f72f00850263004e
:1010900004827200044188000080fa00000006000b
:1010a0000000fa0020e8a90011e1a90000e8a90069
:1010b0000080fa00000006000000fa0034088000fa
:1010c000040078000080fa00000006000200fa0028
:1010d000000f78001e027800340888000080fa00b3
:1010e000000006000000fa0000e8a9000080fa00f5
:1010f000000006000400fa00000f780011079800b5
:101100000002eb00a40888001e029000d4088800aa
:101110001e027800f40888001e61a9000080fa0011
:10112000000006000200fa00000f78000368a90022
:101130001e02780004427800674262006742620043
:10114000674262000482fb00670262004c22dd00fd
:1011500066428000f5ff2800850263000482720069
:10116000644288009e027800688262004322de00aa
:1011700004427800614262000482fb006102620066
:101180004b22dd0016418000f57f2f0085026300b1
:1011900004827200144188000080fa0000000600fa
:1011a0000000fa002368a9001fe1a9000368a90054
:1011b0000080fa00000006000000fa00a408800089
:1011c000040078000080fa00000006000200fa0027
:1011d000000f78001e027800a40888000080fa0042
:1011e000000006000000fa000368a9000080fa0071
:1011f000000006000400fa00000f780011079800b4
:101200000002eb00c40888001e029000e408880079
:101210001e027800040988000080fa000000060021
:101220000200fa00000f78000388a9001e0278006f
:1012300004427800674262006742620067426200cf
:101240000482fb00670262007642800085ff2f0067
:101250008502630004827200744288009e02780056
:10126000688262004322de0004427800614262002c
:101270000482fb00610262004c22dd001641800006
:10128000f5ff2e008502630004827200144188007d
:101290000080fa00000006000000fa002388a90080
:1012a00021e1a9000388a9000080fa0000000600df
:1012b0000000fa00c4088000040078000080fa00f2
:1012c000000006000200fa00000f78001e027800fd
:1012d000c40888000080fa00000006000000fa0040
:1012e0000388a9000080fa00000006000000fa0050
:1012f000040024000602ab00feff3a000642ab00e9
:10130000fcff3a000662ab00faff3a000622ab008f
:10131000f8ff3a000682ab00f6ff3a004610800064
:1013200086026200e08f5200f2ff3a000080fa006d
:10133000000006000000fa000662a8000662ab008a
:10134000feff3a0008c2a900001080000080fa00e9
:10135000000006000000fa000080fb00101088006a
:10136000441080000408b20000c0eb000b003a00fb
:10137000040024004610800086026200e08f5200c4
:10138000fcff3a00d9ff0700000028000802b60061
:10139000e00f500001003200e0cfb3000080fa00ff
:1013a000000006000000fa000622a8000080fa00f3
:1013b000000006000000fa000602a8000080fa0003
:1013c000000006000000fa000642a8000080fa00b3
:1013d0000000060003f0a200889fbe008a9fbe00a6
:1013e0008c1f7800c7010700ce0133006450e10074
:1013f0004f0032006420e1005200320003826c0092
:1014000007003b000905d0000306d000820f5400fe
:101410000c065d00020039000200320089017800ec
:10142000030678008582550004003d000003fd009e
:101430008103fd008502ea008b854200840f720063
:1014400002003b0060001000e08018006011b8004e
:101450000005eb007a28e1000a0039000600780058
:10146000c75ddd00f707b200878075002d003700eb
:10147000828171000a017800610560008180d100dd
:101480000080d3008502e900f9ff3b00060440001c
:101490008784480002003b0060041400e0841c00c4
:1014a0000988a300070032008a81710082817100df
:1014b000610164008904d1000884d3008b05e80031
:1014c000170037000978a30013003a000b00e00072
:1014d000130034008b05e9000804440089844c00a3
:1014e0000a4474000978a3000d003a000b00e000e4
:1014f000070034008b05e9000804440089844c008f
:1015000001003a000b0020000978a300f7ff320029
:101510000001eb0002003700828171000a017800af
:101520003d0107000cf0a70001f0a0008601370084
:101530006420e10002003a00838f6c0086013300d2
:101540000801be000200be007f0137000001eb0071
:10155000bb000700040032000200200003f8230053
:1015600001f0a6009cff0700000006000081eb00d0
:10157000d2013700889fbe008a9fbe008c1f780072
:10158000600107006701330003866c006450e100ce
:101590002e0032006420e100330032006150e1008f
:1015a0002f0032006120e1003100320085855500b6
:1015b000eb07b000090020000804200005003700f8
:1015c0000804440089844c000a00310006034300eb
:1015d00087834b000001530081815b00f8ff3300db
:1015e0000203be000800a0000804440089844c00e7
:1015f000f6ff3900c639dd008301730001003200b7
:10160000130020008904d1000884d3000998a300a6
:10161000050032000800a7000300a0008904d100e3
:101620000884d3008b05e8008904d1000884d30026
:101630000001eb000281d200f700070001f0a100d9
:101640000cf0a70001f0a0003f0137006420e1008a
:10165000410132000801be000200be00f7ff370062
:101660006120e1003c0132006000b800f3ff370068
:101670000000200001f82700f0ff3700839f68007a
:101680000100e00002003d0060001000e080180052
:101690000300e00002003d0060011100e08119003c
:1016a000260207004f00e00002003b00600010002f
:1016b000e080180000000600889fbe008a9fbe00e0
:1016c0008c9fbe000004be00f90007000800be00a9
:1016d0006420e10048003e005500320072212700de
:1016e000132b24007f00070047003c000800be00c9
:1016f000c2ec2800e32c2c007800070047003500de
:101700000800be0001f0a100020020000338230001
:1017100072000700430035000800be00b2a32a0093
:1017200083fb2300310107000200200003f02300a7
:1017300001f0a70003f0a00027ff07006b000700df
:101740000005be00a500070001f0a2000006be00d3
:101750000200280013f32300240107000801be0043
:101760001dff0700809fbe000c00be00320828004d
:10177000e3952b001d0107004f01be0016ff070077
:101780000006be000001be0018010700809fbe00d9
:101790004241250083b82300140107000200200005
:1017a00003e823000cff07000c01be000f01070037
:1017b0000006be004f00be00f2f92b00c3d4230088
:1017c0000a0107000200200003f0230002ff0700c7
:1017d0000c01be00fffe07000001be000c00be00b1
:1017e00064ff07000200200003f02300fafe070058
:1017f00061014500db0007004f06be004f05be003b
:101800004f04be000000060001f827000000200081
:101810002202200002908800f7ff37006000b80025
:10182000fbff370001f8230000002000f2ff370023
:1018300009f8a300f0ff32006000b800eeff3700a7
:10184000889fbe008a9fbe000003be00980007006c
:101850008505780082815200020020006220e100ac
:1018600004003a00f307b100040035007718e100e6
:10187000040035000600be00140037006000b80008
:101880000f003700f50f2000faff2f008502d1006e
:101890000a85d3008301e900fcff3b0081846200dc
:1018a00000046500890f7400f2ff32008582ea00af
:1018b0000a85ea0081846200000465005600070082
:1018c00007f0a70001f0a0000081eb000200e0009b
:1018d0004f05be004f04be000000060014002000ab
:1018e000a6013700f4ff2f00a40137000001be005d
:1018f0006f0007000470a70003f0a1006509b100a4
:10190000160032000d0035006828e10006003500a1
:10191000f0ff2f00f1ff27000300e00013003b0061
:101920000100280000000500000040008180480000
:101930008502e900fcff3a0008003700f88f4200fa
:1019400002003c008000eb00000005008100d10097
:101950000080d3008502e800fcff3a000300e000ad
:1019600002003b0060001000e0801800000006004c
:101970000001be004e0007000470a70003f0a100a4
:1019800003f8a30013003a006509b100100032000b
:10199000090035006928e100020035000100280037
:1019a0000000050000004000818048008502e90039
:1019b000fcff3a0000000600f88f420005003500e9
:1019c0008100d1000080d3008502e800fcff3a00ce
:1019d000000006008000eb00000005004f89de00db
:1019e00082017800800137006011b8008e01370055
:1019f0000001eb0092ff070004003200020020000b
:101a000003f8230001f0a70072fe070000000600a3
:101a1000040020005901370081002000618055003a
:101a20000b003d000b00200061fe2f000100e100d3
:101a30001d00340082817100610164008904d100bd
:101a40000884d3000000e800faff3a00710020008b
:101a500061006400030070000200600009003200b1
:101a600061044400e0844c000988a50005003200b0
:101a70008b05e8006808e10002003a008904d10003
:101a80000884d300f20f20000258e10005003d0059
:101a9000c75ddd00f907b200898075000800780095
:101aa000000006000bf827008b00780000000500fe
:101ab000c70ade00f107b200f50fb20008003200dd
:101ac000e1cf4200020032000170a00024000500b6
:101ad000810f700001003200040805004400050079
:101ae000810f700002003a00140005008502e90031
:101af0000000400081c04800fcff3b000170a000d6
:101b0000240005000004be00e9ff07000003be003a
:101b10000405be000200be00e5ff0700844f75000b
:101b2000000006000200be006450e100050036001f
:101b30006420e100020036000968a30001003a00b9
:101b40000800be000160a0004f0678004f05be00ef
:101b50004f04be0000000600f0ff2f00f1ff270039
:101b6000f9ff37000003be00d1ff07006220e1004b
:101b7000020032000600be0000000600850241009f
:101b8000e30f20000328e10005003c00a3fe2f0026
:101b90000328e10007003d00050020000100370098
:101ba000f50f200020022000009088006000b8009f
:101bb00008003700130020008381520005003d001b
:101bc0008100d1000080d3008301e800fcff3a00cf
:101bd00005002000c72add00f107b20085807000f3
:101be00007f0a70001f0a00000000600889fbe00db
:101bf0008a9fbe008c1f7800c2ff0700c9ff330018
:101c000003866c006450e100240032006420e1008f
:101c1000270032006150e100220032006120e10023
:101c2000210032008b854200eb07b1000134b8007f
:101c3000003ab8000804420089844a00013ab8001a
:101c40000030b8008880400009014a0004003300d9
:101c50000000400081804800020149008b05e90036
:101c6000c909dd008301700001003200130020006b
:101c7000c814de004814dd004709de001200b2007f
:101c8000c808de000884700063ff070001f0a100af
:101c90000cf0a70001f0a000abff37006120e100cd
:101ca000adff32000801be000200be00f7ff3700a2
:101cb0006150e100fcff3a00a7ff3700889fbe009b
:101cc0008a9fbe008c9fbe00820578000004be0083
:101cd00077ff07000800be006420e100070039001c
:101ce00002003a00f1ff2700f0ff2f000160a00082
:101cf0001202200002908800550037006120e100a8
:101d000003003a000b00a70001f823005000370041
:101d100001f0a1000200210093642400effe0700ff
:101d20000800be0004003500b2fd2000930c240022
:101d3000ec0007000004be000005eb000b00a6004d
:101d40004f0dde0001f0a1000004be0032982f000c
:101d500023ea2300a5ff07000001eb0003f02300a6
:101d60000b00a70003f823009bfd0700dffe070020
:101d70000000a7000a00a20018ff07000b00e00007
:101d8000030032000200200003f0230091fd070051
:101d900001f0a2000006be0002002000930424000f
:101da00092ff07000801be008bfd0700809fbe0068
:101db0000c00be0022a22a00d3a723008bff07003d
:101dc0004f01be0084fd07000004be0001f0a10029
:101dd0000200200003982300c0fe07000800be0098
:101de000190035000001be0080ff07000006be009c
:101df000b2c52900e36223007cff070022222b00ea
:101e0000f3942b0074fd07000c01be0077ff070060
:101e1000e273280083c023006ffd07000c01be00a1
:101e200072ff070042aa2a00a3e22b006afd070006
:101e30000c01be006dff07000801be006bff07002c
:101e40000801be0064fd07000a00a70001f0a2001f
:101e50004f06be004f05be004f04be000000060046
:101e60000001eb0095ff3700889fbe008a9fbe00ef
:101e70008c1f78000004be000dff07000478a3004b
:101e800026003a006120e1002500320009f8a30095
:101e900025003a006420e10021003200f507b1007e
:101ea0000508a300020032000000400081804800c5
:101eb0006044b80003102000020020000000400031
:101ec000818048000805440089854c000a054100ce
:101ed0008b8549000a0550008b85580003003300ac
:101ee0000a00be0002047400838474008301d100e0
:101ef0000281d300830f7100f0ff3a008904d10002
:101f00000884d3006001490082017800c1adde0081
:101f1000fb07b000c0fe07000bff37000960a00000
:101f20000800be0008ff370012022000029088005f
:101f3000f0ff2f00f1ff270003ff37006022b800f9
:101f4000060220000000d0008180d2000482d2006e
:101f50008582d2000000a0000202520083825a0053
:101f6000030031000202420083824a000000a10007
:101f70000603e900f3ff3a0000000600889fbe0058
:101f80008a9fbe00841f7800defe07004f007800a5
:101f900011003300f0ff2f00838f6c0006003b0020
:101fa000040565000a00a7000800370009f0a60034
:101fb0001000200008003700820f5400838f5c005f
:101fc000030039001000200001003e000000200046
:101fd00009f0a7000000ea004f05be004f04be0054
:101fe0000000e00000000600881f7800030478006d
:101ff0000300e00007003d0060001000e0801800d2
:1020000060011900e081190002003b0001f02d0081
:10201000030037000400070008f0a70001f0a0004b
:102020004f04780000000600889fbe008a9fbe0013
:1020300000827000040271000482710026003200e8
:102040000004be000200be006011b8006b09200051
:10205000950220000182cf000a0039000541b1003d
:102060000082cf00070039000541b1000982cf008e
:10207000040039000541b1000882cf000100390099
:102080000541b10005425200120032000a003b0037
:1020900082817100610164008100d1000080d30061
:1020a0008984d3000884d3008b05e8000442e8004b
:1020b000f7ff3a00070037000804440089844c0009
:1020c00000004800818048008b05e9000442e900d7
:1020d000f9ff3a0050fe07004f05be004f04be0056
:1020e000000006000400200000003700889fbe00aa
:1020f0008a9fbe008c1f78004f26dd0081fe0700fe
:1021000088fe33006120e100430032006250e100ac
:1021100041003e003e0039006420e1003c003200f6
:10212000058255000f003b000402e80038003a0029
:10213000800f5300818f5b00350034000800be0023
:1021400003f0a10001f0a60003f0a0000cf0a7002e
:10215000a1fc07007cfe37000603430087834b0089
:102160000c4646000005530081855b0002003300e9
:102170000a03be000c00a0000402e900f6ff3b00c9
:10218000850578000602430087824b0004003a0070
:102190006000b80009f0a70001f0a0006afe370057
:1021a0000002520081825a000704e000040033005c
:1021b0000603430087834b008b05e900faff3700d5
:1021c000090578000604be000203be006011b800d5
:1021d00011fe0700e00f5200e08f5a0007003500a3
:1021e00002003c000c08a300040032000601be00ff
:1021f00003f0a0000cf0a70077fc07000a85680038
:1022000001f0a1000af0a70001f0a0004efe370087
:102210000800be004cfe3700100220000cf0a600a3
:08222000009088004cfe37001d
:020000040000fa
:102228003800fa00889fbe00201f9800311f9800d0
:1022380024012000343a8800243a80000460a10078
:102248000470a100243a8800253a800004fe2f007b
:1022580004826200243a880074012000443a88000d
:102268003600200084072000a509200037742000cc
:10227800844b7800854b7800864b7800143a8000b0
:10228800040378000600a0006404200075052000ff
:1022980027742000844b7800854b7800864b7800a3
:1022a80000000000153a80000400270084826200c4
:1022b80004002300848f5200faff3a000000000057
:1022c800153a80000402200004826200e00f5200e8
:1022d800fbff32000002eb00540798000002eb00fd
:1022e800040f78000002eb00340f98000002eb00a6
:1022f800440f98000002eb00540f98000002eb0016
:10230800640798000002eb00740798006022b80088
:10231800040f9800150f98000002eb00240f980096
:1023280007210700200320003c1e0700151a07009c
:1023380020032000391e07006022b800149488008a
:102348002594880014948000259480000400be0021
:10235800ea1a07000040eb00d31a0700552e2100a7
:1023680044c6b300844a7800652e21000042eb0081
:10237800844a7800752e21000042eb00844a7800d8
:10238800742e210014437800642e210094427800b2
:10239800542e2100144278000641780085407800c8
:1023a80004407800781a07008040eb0020c0b30092
:1023b8004b2007000002eb0054978800a40020007f
:1023c800749788001400200064978800a4002000f7
:1023d800849788000002eb00140798006022b80078
:1023e80064179800751798006022b800041f9800b9
:1023f800151f98002c0037001e029000e50f5200b0
:102408002e003c0055978000f4ff20008482620073
:1024180004002100048272006417980080de8300a3
:1024280091de8300a2de83001b2207006e1290005b
:10243800050320008e8242008500780004007800a1
:10244800a5200700004278000482fb00540798008a
:1024580080de830091de8300a2de83002222070053
:1024680080de830091de8300a2de83000a2207005b
:102478006e129000e12e21000400780096200700db
:10248800004278000482fb005407980080de830035
:1024980091de8300a2de8300132207001e02900053
:1024a8000402e8001407980055978000749780008c
:1024b800848f5200d0ff3a0001003700000000006e
:1024c8000002eb00140798002c0037001e02900051
:1024d800e50f52002e003c0065978000f4ff2000b5
:1024e800848262000400220004827200641798004b
:1024f80080de830091de8300a2de8300e6210700f0
:102508006e129000050320008e824200850078003c
:102518000400780070200700004278000482fb0065
:102528005407980080de830091de8300a2de8300da
:10253800ed21070080de830091de8300a2de8300a8
:10254800d52107006e129000012f210004007800a9
:1025580061200700004278000482fb0054079800bd
:1025680080de830091de8300a2de8300de21070087
:102578001e0290000402e800140798006597800086
:1025880084978000848f5200d0ff3a000100370002
:102598000000000004dd830015dd8300b4af88006f
:1025a800c5af880025dd8300d5af8800040024006e
:1025b800c539240044df8b0055df8b00b0af8000a5
:1025c800c1af8000d2af8000c81b070000027800ae
:1025d800540798005e029000340f980050002000c5
:1025e8008e1d07000001eb00010021008000200083
:1025f800f1f807000400200085142400b4b0880016
:10260800c5b088000002eb00340798000002eb0018
:10261800240798003d003700fa0247007802470077
:102628007603470086017800b0af8000c1af800014
:10263800d2af8000711c0700004278000482fb00c2
:10264800540798005e029000e00f52002a00340000
:102658003e0a9000cfa2de000400be00ddfc0700a9
:102668000003be0034a0830045a083000401be001f
:102678000600be0056fb07000002be0034a08b0017
:1026880045a08b004e0a9000cfa2de000400be00d9
:10269800d0fc07000003be0054a0830065a083009f
:1026a8000401be000600be0049fb07000002be0090
:1026b80054a08b0065a08b005e0a9000cfa2de00bc
:1026c8000400be00c3fc07000003be0074a0830022
:1026d80085a083000401be000600be003cfb070085
:1026e8000002be0074a08b0085a08b003e02900003
:1026f8000402e8003407980010002000471d070076
:102708002e0290000402e80024079800ae02900010
:1027180034062000848f5200bfff340038a08300a5
:1027280049a083003e029000cfa2de000400be0054
:10273800a8fc07000002be000401be000800be009d
:102748008afb07000002be0034a08b0045a08b0066
:1027580058a0830069a083003e029000cfa2de004b
:102768000400be009bfc07000002be000401be007e
:102778000800be007dfb07000002be0054a08b00cd
:1027880065a08b0078a0830089a083003e0290009a
:10279800cfa2de000400be008efc07000002be00cf
:1027a8000401be000800be0070fb07000002be0066
:1027b80074a08b0085a08b002628a9000628a900f4
:1027c800cb150700501c0700004278000402fb00ec
:1027d8005407980081c4b3000040eb00452007006f
:1027e8000002780054079800100020000b1d070015
:1027f80061c0b30010c0b300de1507000002780006
:102808000442780045612100844a780091c4b300ed
:102818000040eb00372007000002780054079800ba
:1028280003c8b300c0dd8300d1dd8300e2dd83008f
:102838001b1a070000027800c55f2100840a78008f
:1028480050002000f51c070003c8b30050de8300c9
:1028580061de830072de8300111a0700000278002f
:10286800c55f21009402980050002000eb1c07006f
:1028780003c8b30020de830031de830042de83001c
:10288800071a070000027800c55f2100a40298001b
:1028980050002000e11c070003c8b300f0dd8300ee
:1028a80001de830012de8300fd19070000027800b4
:1028b800c55f2100b402980050002000d71c070013
:1028c8000002eb00040f78001d00370023202100d0
:1028d800c0dd8300d1dd8300e2dd8300ab1a070091
:1028e80010002000cd1c0700e3202100f0dd83004c
:1028f80001de830012de8300a41a07001000200006
:10290800c61c07006320210020de830031de83001f
:1029180042de83009d1a070010002000bf1c07003c
:10292800a320210050de830061de830072de830075
:10293800961a070010002000b81c07001e0fe800b8
:10294800140320009e027800848f5200dfff3400b9
:10295800149080002590800024b0880035b088004d
:10296800549080006590800044b0880055b088007d
:10297800349080004590800064b0880075b088006d
:10298800749080008590800084b0880095b088009d
:10299800c45f210014027800e10f520004003200e5
:1029a8000400200005f82b0014908800259088006a
:1029b800c45f210014029000e10f520004003200ad
:1029c8000400200005f82b005490880065908800ca
:1029d800c45f210024029000e10f5200040032007d
:1029e8000400200005f82b003490880045908800ea
:1029f800c45f210034029000e10f5200040032004d
:102a08000400200005f82b00749088008590880049
:102a18006022b800b4908800c59088000002eb00de
:102a280074c18b000002eb0084c18b000002eb0034
:102a3800040f78003b003700c55f21001e027800b4
:102a4800040242000482420014027800e10f52009e
:102a580033003a001e027800c222dd0044602100e3
:102a6800048242001402be0018c0b3000200200015
:102a7800031a24000400be0098fb07000002780037
:102a8800e00f520001003c000044eb00e04f54000e
:102a9800230032001e027800c222dd0044602100bb
:102aa800048242001402be0018c0b30002002000d5
:102ab800032724000400be0086fb070000027800fc
:102ac800e00f5200010035000044eb00e04f5400d5
:102ad8001300320074c183000402e80074c18b0043
:102ae8001e027800c222dd004460210004824200f8
:102af8001403be00b4908000c59080000401be009d
:102b08000600be0032fa07000002be00b49088003a
:102b1800c590880084c183000402e80084c18b004a
:102b28001e0fe8001e027800e30f5200c2ff3400b7
:102b380074c18300e00f52000e003400b89080008a
:102b4800c990800074c18300cfa2de000400be00db
:102b5800a0fb07000002be000401be000800be0082
:102b680082fa07000002be00b4908800c590880071
:102b7800040037000400200005f82b00b4908800fa
:102b8800c5908800b4908000c5908000d4908800db
:102b9800e5908800b4908000c5908000f49088008b
:102ba80005918800b4908000c59080001491880039
:102bb80025918800f49080000591800034c28b0034
:102bc80045c28b00149080002590800054918800a5
:102bd8006591880054908000659080007491880009
:102be80085918800349080004590800094918800f9
:102bf800a59188007490800085908000b491880029
:102c0800c59188003491800045918000d491880056
:102c1800e591880094908000a5908000f491880048
:102c280005928800b4908000c590800014928800b6
:102c380025928800f49080000591800034928800e5
:102c4800459288000002eb00040f78000800370066
:102c5800f4908000059180001e037800c233dd00e7
:102c68006683270006834300048bbe001e0fe8001e
:102c78001e027800e30f5200f5ff340051c0b30084
:102c880010c1b300571607000002eb00040f7800cc
:102c980004003700401f2000e01b07000060fe0012
:102ca8001e0fe8001e027800e30f5200f9ff3400ff
:102cb80003003700800c2000d81b07000060fe00ce
:102cc800b4b1270014427800e04f5200f9ff3200f7
:102cd80017200700432007002ff90700d000200025
:102ce8000ef9070001102000007d20000d1c0700d0
:102cf8000002be0004027800840078000003280067
:102d0800faf8070062f90700c000200042f907003e
:102d180001102000803e2000021c07000002be00b7
:102d28000402780084007800000328002ff90700c7
:102d3800552e21000042eb00844a7800652e2100c0
:102d48000042eb00844a7800752e21000042eb0017
:102d5800844a7800742e210014437800642e2100e0
:102d680094427800542e21001442780006417800dd
:102d7800854078000440780003180700a412220058
:102d8800040001000000eb00a4f8070000e8a90017
:102d98008080eb000003280094f80700242f21000e
:102da80014427800e04f52003d003a0021c0b300c1
:102db80010c0b3006f14070000027800640f980079
:102dc800391b070000027800a49388001000200037
:102dd800921b070041c0b30010c0b3006514070080
:102de80000027800740f98002f1b0700000278007b
:102df800c493880010002000881b070031c0b3006e
:102e080010c0b3005b140700000278000417980094
:102e1800251b070000027800b493880010002000ea
:102e28007e1b070051c0b30010c0b3005114070047
:102e380000027800141798001b1b07000002780096
:102e4800d493880010002000741b07008040eb001a
:102e580010c0b30047140700000278002417980038
:102e6800111b070000027800e4938800100020007e
:102e78006a1b070011c0b30010c0b3003d1407005f
:102e88000002780034179800071b0700000278003a
:102e9800f493880010002000601b07000c00370026
:102ea8000002eb00a49388000002eb00c4938800a2
:102eb8000002eb00b49388000002eb00d493880072
:102ec8000002eb00e49388000002eb00f493880012
:102ed8004483270014427800e14f520020003a0052
:102ee800adf80700d00020008cf8070045832700c4
:102ef8000042eb00844a78002483270014427800bb
:102f0800e04f52000e003a0001102000007d200022
:102f1800841b07000002be000402780084007800c9
:102f28000003280071f8070094c283000402e80037
:102f380094c28b008490210004000100080037002f
:102f48000110200020032000761b07000002be00ad
:102f580004027800840078000003280063f8070062
:102f68003483270014427800e14f520005003a00ec
:102f7800e415220004000100358327000042eb001d
:102f8800844a78005483270014427800e14f5200a5
:102f980004003200445f210014427800e14f5200df
:102fa80026003a00baf80700c00020009af8070087
:102fb80001102000803e20005a1b07000002be00be
:102fc80004027800840078000003280087f80700ce
:102fd800558327000042eb00844a7800445f2100b3
:102fe80014427800e14f52000f003a00011f070019
:102ff800781f0700a41f07008040eb0020c0b30023
:10300800861c07004a1f0700761f070000dd8300a3
:1030180011dd830022dd8300331f07000088a9002b
:10302800e0012000fd1a0700455f21000042eb0087
:10303800844a7800a4122200040001009428210088
:1030480014427800e14f52003b003a00949080000f
:10305800a590800018c0b30002002000831c240043
:103068000400be001dfa070000027800e00f5200bd
:1030780001003d000044eb00e04f5400070032001f
:103088003594800044062000848f520003003a00e3
:103098000002eb00349488001200370094908000fe
:1030a800a590800018c0b30002002000031c240073
:1030b8000400be0007fa070000027800e00f520083
:1030c800010034000044eb00e04f540005003200da
:1030d80034948000e00f520002003a0044062000b9
:1030e80034948800a4938000e10f42001b003a004a
:1030f800b4938000e10f420018003a00c4938000a6
:10310800e10f420015003a00d4938000e10f42001d
:1031180012003a00e4938000e10f42000f003a00e9
:10312800f4938000e10f42000c003a000002eb002b
:10313800349488000900370094282100144278004c
:10314800e24f520003003a000002eb00349488007a
:103158000200370044062000349488000002eb0087
:10316800440798000002eb00040f78000b003700ba
:103178001e02780084024200a42421000482420036
:1031880014027800e00f5200030034004e02900051
:103198000402e800440798001e0fe8001e027800a9
:1031a800e70f5200f2ff34004e029000e00f520089
:1031b800050034004e02900004427800a525210045
:1031c800844a780003003700a52521000042eb005f
:1031d800844a780045080700b5f707000002780020
:1031e80074079800acf70700011020007e009000db
:1031f8000c1b07000002be00040f9800150f980072
:103208000060fe00dffe37001e00fa00889fbe0047
:103218000002eb00040f780081c4b30020212100d4
:10322800de1d070061c0b30010c0b30051130700d2
:10323800000278000442780045612100844a780041
:1032480091c4b30060222100d41d070084c183000b
:10325800e00f52007c0034002483270014427800d9
:10326800e14f520024003200c45f210014027800ac
:10327800e10f520005003a0023202100c0dd830041
:10328800d1dd8300e2dd830040180700c45f210020
:1032980014029000e10f520005003a00a32021001b
:1032a80050de830061de830072de8300371807007a
:1032b800c45f210024029000e10f520005003a008b
:1032c8006320210020de830031de830042de83009c
:1032d8002e180700c45f210034029000e10f52004d
:1032e80005003a00e3202100f0dd830001de8300c1
:1032f80012de8300251807001490800025908000b6
:1033080024b0880035b08800549080006590800013
:1033180044b0880055b08800349080004590800003
:1033280064b0880075b08800749080008590800033
:1033380084b0880095b088006022b800b4908800f6
:10334800c59088000002eb0074c18b000002eb00fe
:10335800040f780038003700c55f21001e0278008e
:10336800040242000482420014027800e10f520075
:1033780030003a001e027800c222dd0044602100bd
:10338800048242001402be0018c0b30002002000ec
:10339800031a24000400be0050f907000002780058
:1033a800e00f520001003c000044eb00e04f5400e5
:1033b800200032001e027800c222dd004460210095
:1033c800048242001402be0018c0b30002002000ac
:1033d800032724000400be003ef90700000278001d
:1033e800e00f5200010035000044eb00e04f5400ac
:1033f8001000320074c183000402e80074c18b001d
:103408001e027800c222dd004460210004824200ce
:103418001403be00b4908000c59080000401be0073
:103428000600be00eaf707000002be00b49088005c
:10343800c59088001e0fe8001e027800e30f5200b6
:10344800c5ff3400020037000002eb0074c18b0096
:1034580074c18300e00f52000e003400b890800061
:10346800c990800074c18300cfa2de000400be00b2
:1034780058f907000002be000401be000800be00a3
:103488003af807000002be00b4908800c590880092
:1034980004003700d4908000e5908000b490880044
:1034a800c59088005694800067948000b49080008e
:1034b800c59080000401be000600be00c9f90700df
:1034c8000002be000404be00769480008794800049
:1034d800d4908000e59080000401be000600be0084
:1034e800c0f907000002be000401be000800be00cb
:1034f800b7f707000002be000404be0096948000df
:10350800a794800014918000259180000401be00da
:103518000600be00b3f907000002be000401be00a9
:103528000800be00aaf707000002be00f490880059
:103538000591880094c28300e50f520029003400e9
:10354800440a2200a224210021202100a0222100d7
:1035580004000100440a2200c2242100a120210005
:10356800e022210004000100440a2200e224210094
:10357800612021002023210004000100440a2200c8
:1035880002252100e1202100602321000400010020
:10359800440a22002225210061222100a0232100c3
:1035a80004000100440a22004225210021212100b3
:1035b800e023210004000100440a220062252100c2
:1035c800612121002024210004000100440a220076
:1035d80082252100e121210060242100040001004e
:1035e80020003700149080002590800054918800b6
:1035f80065918800549080006590800074918800df
:1036080085918800349080004590800094918800ce
:10361800a59188007490800085908000b4918800fe
:10362800c59188003491800045918000d49188002c
:10363800e591880094908000a5908000f49188001e
:1036480005928800b4908000c5908000149288008c
:1036580025928800f49080000591800034928800bb
:1036680045928800f49080000591800014918800ac
:1036780025918800b4908000c5908000d49088007f
:10368800e590880014002000040f78000d00370032
:10369800440020001e035200350020001e82520004
:1036a800c222dd0064832700048242001402be00a7
:1036b800c233dd006683270006834300048bbe0007
:1036c8001e0fe8001e027800e30f5200f0ff3400de
:1036d800e4968000f5968000b4c18b00c5c18b00cc
:1036e80016c2830027c28300f494800005958000e9
:1036f80018c0b3000401be000600be0077f807003a
:1037080000027800e00f520001003c000044eb008a
:10371800e04f54000700320014c2830025c2830022
:103728000400be00e81007000002be0034c28b008f
:1037380045c28b0074c18300e00f5200760234004a
:1037480084c18300e00f52006b02340084282100fa
:1037580014427800e14f520053023a006696800006
:1037680077968000f49480000595800018c0b30017
:103778000401be000600be0056f8070000027800eb
:10378800e00f5200010034000044eb00e04f540009
:10379800080032006022b80014948800259488003c
:1037a80014948000259480000400be00d3150700ff
:1037b8001a0237006696800077968000349580005c
:1037c8004595800018c0b3000401be000600be0085
:1037d80042f8070000027800e00f520001003c00a8
:1037e8000044eb00e04f54000400320034958000a0
:1037f80045958000649688007596880066968000d6
:1038080077968000149580002595800018c0b30035
:103818000401be000600be002ef807000002780072
:10382800e00f5200010035000044eb00e04f540067
:103838000400320014958000259580006496880065
:1038480075968800849680009596800018c0b3000d
:103858006011b8000400be0020f8070000027800dc
:10386800e00f520001003c000044eb00e04f540020
:103878001000320084968000959680000401be00f6
:103888000400be00d2f607000002be0036c2830064
:1038980047c2830060968000719680000601be00d2
:1038a800b11007000002be00e4968800f596880073
:1038b800040037006496800075968000e4968800be
:1038c800f5968800249680003596800018c0b300cd
:1038d80002002000030a24000400be00fff70700ce
:1038e80000027800e00f520001003c000044eb00a9
:1038f800e04f54001f003200249680003596800067
:1039080018c0b30002002000031724000400be0002
:10391800f0f7070000027800e00f520001003500c0
:103928000044eb00e04f540012003200e69680009d
:10393800f7968000f49080000591800030c28300e3
:1039480041c283000001be00a0842700b00f070019
:10395800a48427001402be002496880035968800a7
:10396800a4842700b40290002402900044968800a2
:103978005596880004912e0075f723005407980087
:103988006507980004662700f5f723007407980078
:10399800050f980074002f0065f02300140f98009d
:1039a800250f980014712c00a5ef2300340f980000
:1039b800450f980014932900a5ee2300540f980092
:1039c800650f98000400200005f8230014079800ec
:1039d80025079800f49080000591800018c0b30076
:1039e80002002000031d24000400be00bbf70700ee
:1039f80000027800e00f520001003d000044eb0097
:103a0800e04f540012003200f490800005918000cd
:103a180018c0b30002002000c31d24000400be002b
:103a2800acf7070000027800e00f520001003500f3
:103a38000044eb00e04f5400050032005e029000a5
:103a4800ee02900014079800250798005b013700e4
:103a5800f49080000591800018c0b3000200200097
:103a6800c31d24000400be009cf707000002780074
:103a7800e00f520001003d000044eb00e04f54000d
:103a88002b003200f49080000591800018c0b3002c
:103a980002002000431e24000400be008df707002a
:103aa80000027800e00f5200010035000044eb00ee
:103ab800e04f54001e0032007e0390008e0b9000f1
:103ac8005e029000ee0290000401be000600be00f7
:103ad8003ef607000002be000404be00f490800019
:103ae8000591800002002000c31d24000400be00d0
:103af80036f607000002be000401be000800be0042
:103b080038f807000002be000403be005e02900001
:103b1800ee0290000401be000600be002cf607006d
:103b28000002be00140798002507980023013700fb
:103b3800f49080000591800018c0b30002002000b6
:103b4800431e24000400be0064f70700000278004a
:103b5800e00f520001003d000044eb00e04f54002c
:103b680012003200f49080000591800018c0b30064
:103b780002002000c31e24000400be0055f7070001
:103b880000027800e00f5200010035000044eb000d
:103b9800e04f5400050032007e0290008e0a90002b
:103ba800140798002507980004013700f490800056
:103bb8000591800018c0b30002002000c31e240035
:103bc8000400be0045f7070000027800e00f52002d
:103bd80001003d000044eb00e04f54002b00320090
:103be800f49080000591800018c0b3000200200006
:103bf800431f24000400be0036f7070000027800c7
:103c0800e00f5200010035000044eb00e04f540083
:103c18001e0032001e0b9000ae0b90007e0290003a
:103c28008e0a90000401be000600be00e7f50700fa
:103c38000002be000404be00f490800005918000dc
:103c480002002000c31e24000400be00dff50700a8
:103c58000002be000401be000800be00e1f7070034
:103c68000002be000403be007e0290008e0a90008f
:103c78000401be000600be00d5f507000002be0024
:103c88001407980025079800cc003700f4908000ae
:103c98000591800018c0b30002002000431f2400d3
:103ca8000400be000df7070000027800e00f520084
:103cb80001003d000044eb00e04f540012003200c8
:103cc800f49080000591800018c0b3000200200025
:103cd800c31f24000400be00fef60700000278009f
:103ce800e00f5200010035000044eb00e04f5400a3
:103cf800050032001e0a9000ae0a900014079800d2
:103d080025079800ad003700f490800005918000e9
:103d180018c0b30002002000c31f24000400be0026
:103d2800eef6070000027800e00f520001003d00a7
:103d38000044eb00e04f54002b003200f490800068
:103d48000591800018c0b300020020002320240041
:103d58000400be00dff6070000027800e00f520002
:103d6800010035000044eb00e04f54001e00320013
:103d78003e0b9000ce0b90001e0a9000ae0a9000f9
:103d88000401be000600be0090f507000002be0058
:103d98000404be00f4908000059180000200200019
:103da800c31f24000400be0088f507000002be00ff
:103db8000401be000800be008af707000002be002a
:103dc8000403be001e0a9000ae0a90000401be0063
:103dd8000600be007ef507000002be00140798002a
:103de8002507980075003700f49080000591800041
:103df80018c0b30002002000232024000400be00e5
:103e0800b6f6070000027800e00f520001003d00fe
:103e18000044eb00e04f540012003200f4908000a0
:103e28000591800018c0b300020020006320240020
:103e38000400be00a7f6070000027800e00f520059
:103e4800010035000044eb00e04f5400050032004b
:103e58003e0a9000ce0a90001407980025079800a3
:103e680056003700f49080000591800018c0b30018
:103e780002002000632024000400be0097f607001b
:103e880000027800e00f520001003d000044eb0002
:103e9800e04f54002b003200f49080000591800020
:103ea80018c0b30002002000a32024000400be00b4
:103eb80088f6070000027800e00f52000100350084
:103ec8000044eb00e04f54001e0032005e0b9000ef
:103ed800ee0b90003e0a9000ce0a90000401be004e
:103ee8000600be0039f507000002be000404be004b
:103ef800f4908000059180000200200063202400d7
:103f08000400be0031f507000002be000401be0037
:103f18000800be0033f707000002be000403be001d
:103f28003e0a9000ce0a90000401be000600be00c2
:103f380027f507000002be0014079800250798001f
:103f48001e003700f49080000591800018c0b3006f
:103f580002002000a32024000400be005ff6070032
:103f680000027800e00f520001003d000044eb0021
:103f7800e04f540011003200f49080000591800059
:103f880018c0b30002002000032124000400be0072
:103f980050f6070000027800e00f520001003500db
:103fa8000044eb00e04f5400040032005e0a900029
:103fb800ee0a9000140798002507980024968000c0
:103fc800359680001e019000ae0190000400be00ee
:103fd80004f707000002be00340798004507980060
:103fe8004496800055968000f090800001918000f2
:103ff800e8968000f99680000403be003e02900017
:10400800ce0290000001be000800be00700d07003f
:104018000002be001494880025948800b4908000a3
:10402800c590800018c0b30002002000432324007c
:104038000400be0029f6070000027800e00f5200d5
:1040480001003c000044eb00e04f54000d003a0032
:1040580094908000a590800018c0b3000200200052
:10406800432324000400be001cf607000002780069
:10407800e00f520001003c000044eb00e04f540008
:10408800030032006022b800149488002594880048
:10409800149480002594800005f0a2000400be005e
:1040a80096130700230037006496800075968000f9
:1040b80002002000030a24000400be00c9f607001d
:1040c8000002be0002002000633124000400be008c
:1040d800bef407000002be001494880025948800ee
:1040e800149480002594800005f0a2000400be000e
:1040f800821307000f0037006022b800149488006c
:104108002594880014948000259480000400be0043
:104118007a130700070037006022b800149488005b
:104128002594880014948000259480000400be0023
:10413800721307004f04be000080fa00000006005a
:104148000600fa00881f7800000f78001107980011
:10415800220798001e0290001403be001e02780079
:104168001402be000401be000600be0097f407005a
:104178000002be0018c0b3000200200003002400a3
:104188000400be00d5f5070000027800e00f5200d9
:1041980001003c000044eb00e04f540013003a00db
:1041a8001e0290001403be001e0278001402be0016
:1041b8000401be000600be0084f407000002be0031
:1041c80018c0b3000200200003002c000400be0049
:1041d800c0f5070000027800e00f5200010035002a
:1041e8000044eb00e04f54000e0032002e02900015
:1041f80014027800e10f520004003c001e0278000f
:104208001402be001e039000048bbe002e02900014
:10421800140278008402e8002e029000050a780053
:10422800070037001e0290001402be001e0378002b
:10423800048bbe002e0290008002eb00050a780075
:104248004f0478000080fa00000006000000fa0021
:10425800dc1a07002583270014c0b300844a7800bd
:1042680000dd830011dd830022dd83008a1a070048
:1042780050002000691607005e1a0700e0002000c1
:104288003e1a070044df830055df83001200200038
:104298000400be00c31607000002be000402780036
:1042a8008400780000002800291a07000080fa001e
:1042b800000006000400fa000002eb00040f78007a
:1042c8000002eb00040f78003d0037001e02780062
:1042d800040242008402420004c027000482420013
:1042e80094027800f40f2000848262001e02780095
:1042f800040242000402e8000403420004c027004c
:104308000402430014037800f40f20000402630041
:104318004822dd0004824200140798001e02900023
:10432800e00f520007003d009e0290001e02780038
:1043380004034200442f210004024300050a7800c8
:10434800060037009e0290001e0278000403420017
:10435800442f210004024300050a78001e02780059
:1043680084024200442f2100048242001402780093
:10437800cfa2de000400be0096f507000003be00d1
:1043880074a0830085a083000401be000600be005f
:104398000ef407000002be000400be0051f507003d
:1043a8000002be00840278001e0278000403420066
:1043b800442f210004024300050a78001e0fe8007c
:1043c800f40f20009e027800848f5200bfff340053
:1043d8000400210003002700a2422700414f2100ca
:1043e800402f2100d11607000428220004000100f4
:1043f8000080fa00000006000a00fa003007980062
:10440800410798000002eb00240798002e02900054
:1044180004024200be02900004824200140f780099
:104428001400200014079800110037001e029000a5
:1044380004024200be029000048242001402780086
:104448009e0f520007003d001e0290000402420029
:10445800be02900004824200140f78001e029000f1
:10446800240798001e0290000402e8001407980030
:104478009e0290004e029000848f5200ebff39009c
:104488002e029000040078000080fa000000060068
:104498000600fa0010079800210798001e029000f5
:1044a800140f78002e029000940278001e029000eb
:1044b800050a78002e0290001e0a78000080fa0093
:1044c800000006000600fa0010079800210798006f
:1044d8001e029000140f78002e02900094027800bb
:1044e8001e029000050a78002e0290001e0a78002d
:1044f8000080fa00000006001600fa000002eb0037
:10450800040f7800100037001e0278008402420071
:10451800444f210004824200940278001e02780071
:10452800040242006602420004024700050a7800bd
:104538001e027800040242006e0242000402470094
:104548001e0a78001e0fe8001e027800e30f5200d2
:10455800edff3600660247004100200004007800a5
:10456800a5ff0700000278002407980044002000f7
:10457800040f7800220037001e02780084024200ef
:10458800444f210004824200940278002e029000d9
:104598000402420066024200040247001402780046
:1045a800848f5200150034001e02780084024200f5
:1045b800444f210004824200940278002e029000a9
:1045c800040242006602420004024700050a78001d
:1045d8002e029000040242006e02420004024700cc
:1045e8001e0a780066024700410020000400780097
:1045f80081ff070000027800240798001e0fe800da
:10460800f40720009e027800848f5200daff3600fb
:104618000002eb00040f78002c0037001e02e800af
:1046280014079800250037001e029000040242007b
:104638006602420004024700940278001e027800d5
:104648000402420066024200040247001402780095
:10465800848f5200160034001e02900004024200ab
:10466800e6024700848242001e02780004024200eb
:1046780066034700040243008500780004007800c0
:1046880083ff07001e02900004024200ee0247006a
:10469800848242001e027800040242006e03470032
:1046a80004024300850078000400780085ff0700b5
:1046b8001e0290000402e800140798001e029000f1
:1046c800e30f5200d8ff36001e0fe8001e027800e4
:1046d800e20f5200d1ff36000002eb00040f780011
:1046e800270037001e0278000402420066024200da
:1046f8000402470014027800cfa2de000400be00c6
:10470800b4f407000002be001e037800c233dd00c7
:10471800c625210006834300048bbe001e027800d4
:10472800040242006e0242000402470014027800ac
:10473800050020000400be00a9f407000003be0025
:10474800b4b08000c5b080000401be000600be0001
:1047580024f507000002be000400be0082f4070032
:104768000002be0084027800c62621001e027800de
:104778000402420004024300050a78001e0fe80004
:104788001e027800e30f5200d6ff36000080fa00c0
:10479800000006001400fa00881f780020579800cf
:1047a8000002eb00140798002e529000e34f5200cd
:1047b800a9003a0044852700144278000482fb00cf
:1047c800549788005597800044062000848f520033
:1047d80002003600440620005497880054852700bc
:1047e800144278008482fb00648527001442780014
:1047f8000482fb004822dd0004827200649788006e
:1048080065978000047d2000848f520003003600e5
:10481800047d2000649788000500370064978000b5
:10482800e00f520002003a0014002000649788004c
:104838000002eb00040f78006022b80054079800cb
:10484800650798006022b80074079800050f980063
:1048580055978000f4ff2000848262000400210044
:1048680004827200540798000412800062026200f9
:10487800e00f5200320032000000000004128000f5
:1048880062026200e00f5200fcff3a002d00370080
:10489800455f210014c0b300844a78001e027800e6
:1048a800e00f52000200340050002000db14070023
:1048b8001e027800ea0f520027003c0080de8300c9
:1048c80091de8300a2de8300f31807005e029000e9
:1048d800ee02470085007800040078007e17070084
:1048e800004278000482fb001407980080de8300f1
:1048f80091de8300a2de8300fb18070080de8300c0
:1049080091de8300a2de8300e31807005e029000b8
:10491800e12e2100040078006f170700004278009c
:104928000482fb001407980080de830091de830078
:10493800a2de8300ec1807001e0fe8000100370014
:10494800000000005597800074978000848f520003
:10495800cfff3a0001003700000000000002eb0022
:10496800040f78000412800062026200e00f520017
:10497800050032000000000004128000620262009c
:10498800e00f5200fcff3a0065978000f4ff20001a
:104998008482620004002200048272005407980096
:1049a800280037001e027800e00f52000200340091
:1049b80050002000991407001e027800ea0f5200e8
:1049c8009d003c0080de830091de8300a2de830030
:1049d800b11807005e029000ee02470085007800db
:1049e800040078003c170700004278000482fb00ae
:1049f8001407980080de830091de8300a2de830026
:104a0800b918070080de830091de8300a2de8300f0
:104a1800a11807005e029000012f21000400780011
:104a28002d170700004278000482fb001407980045
:104a380080de830091de8300a2de8300aa180700cf
:104a48001e0fe8006597800084978000848f5200cd
:104a5800d4ff3a00790037002e529000e44f5200fc
:104a68001a003a004485270014427800552e210088
:104a7800844a78005485270014427800652e210066
:104a8800844a78006485270014427800752e210036
:104a9800844a7800742e2100144278000483fb00b5
:104aa800642e2100144278008482fb00542e2100d9
:104ab800144278000482fb00060178008500780023
:104ac80004007800b01007005c0037002e529000f8
:104ad800e54f520050003a00448527001442780000
:104ae8008482fb0054852700144278000482fb006e
:104af8004822dd0004827200240798002e029000ec
:104b0800e00f520011003d002e0290006123b80012
:104b180004002000f5ff2f000602420087824a00a9
:104b28000400be00abf307000002be000200200034
:104b3800031224000400be008cf207000002be002d
:104b480064968800759688000c0037002e02900045
:104b5800050020000400be00a1f307000002be000b
:104b680002002000031224000400be007ff20700a8
:104b78000002be00649688007596880064968000de
:104b88007596800018c0b30002002000031d2400a1
:104b98000400be004ff3070000027800e00f520047
:104ba800010035000044eb00e04f540003003200e0
:104bb8006022b8006496880075968800648527008e
:104bc800144278008482fb00748527001442780020
:104bd8000482fb004822dd0004827200cfa2de00be
:104be8000400be007bf307000002be0034079800f3
:104bf8004507980002002000a34724003e009000cb
:104c0800ce00900059f207000002be00849688008a
:104c180095968800090037002e529000e64f520002
:104c280006003a004485270014427800252f210009
:104c3800844a780001003700000000004f04780023
:104c48000080fa00000006000200fa0044852700f0
:104c58001442780085282100844a7800548527006a
:104c6800144278008482fb0064852700144278008f
:104c78000482fb004822dd0004827200cfa2de001d
:104c88000400be0053f307000002be00020020002b
:104c9800031224000400be0034f207000002be0024
:104ca800b4948800c594880074852700144278005d
:104cb8008482fb0084852700144278000482fb006c
:104cc8004822dd0004827200cfa2de000400be008c
:104cd80040f307000002be0002002000a3472400a2
:104ce8000400be0021f207000002be00d494880030
:104cf800e594880094852700144278008482fb009c
:104d0800a4852700144278000482fb004822dd00b5
:104d180004827200040f78001e027800e00f52002f
:104d280011003d001e0278006123b8000400200035
:104d3800f5ff2f000602420087824a000400be00e9
:104d480024f307000002be0002002400c36124000f
:104d58000400be0005f207000002be00549488005b
:104d6800659488000c0037001e02780005002000ba
:104d78000400be001af307000002be00020024006f
:104d8800c36124000400be00f8f107000002be0061
:104d98005494880065948800b485270014427800ec
:104da8008482fb00c4852700144278000482fb003b
:104db8004822dd0004827200040f78001e02780089
:104dc800e00f520011003d001e0278006123b80078
:104dd80004002000f5ff2f000602420087824a00e7
:104de8000400be00fbf207000002be00020024001f
:104df800c36124000400be00dcf107000002be000d
:104e080074948800859488000c0037001e0278008e
:104e1800050020000400be00f1f207000002be00f9
:104e280002002400c36124000400be00cff1070083
:104e38000002be007494880085948800d4852700f9
:104e4800144278008482fb00e4852700144278002d
:104e58000482fb004822dd0004827200040f7800ff
:104e68001e027800e00f520011003d001e0278007b
:104e78006123b80004002000f5ff2f00060242005d
:104e880087824a000400be00d2f207000002be007a
:104e980002002400c36124000400be00b3f107002f
:104ea8000002be0094948800a59488000c00370086
:104eb8001e027800050020000400be00c8f20700aa
:104ec8000002be0002002400c36124000400be00ea
:104ed800a6f107000002be0094948800a5948800fb
:104ee800f48527001442780095282100844a780028
:104ef8000486270014427800252c2100844a780073
:104f080014862700144278008482fb002486270038
:104f1800144278000482fb004822dd0004827200fb
:104f2800040f78001e027800e00f520011003d00c7
:104f38001e0278006123b80004002000f5ff2f004e
:104f48000602420087824a000400be00a1f2070060
:104f58000002be0002002000a34724000400be0097
:104f680082f107000002be0054958800659588000c
:104f78000c0037001e027800050020000400be0067
:104f880097f207000002be0002002000a347240099
:104f98000400be0075f107000002be0054958800a9
:104fa8006595880034862700144278008482fb00c7
:104fb80044862700144278000482fb004822dd0062
:104fc80004827200040f78001e027800e00f52007d
:104fd80011003d001e0278006123b8000400200083
:104fe800f5ff2f000602420087824a000400be0037
:104ff80078f207000002be0002002000a347240048
:105008000400be0059f107000002be007495880034
:10501800859588000c0037001e02780005002000e6
:105028000400be006ef207000002be00020020006d
:10503800a34724000400be004cf107000002be0094
:105048007495880085958800548627001442780056
:105058008482fb0064862700144278000482fb00e7
:105068004822dd0004827200040f78001e027800d6
:10507800e00f520011003d001e0278006123b800c5
:1050880004002000f5ff2f000602420087824a0034
:105098000400be004ff207000002be000200240018
:1050a800c36124000400be0030f107000002be0006
:1050b80094958800a59588000c0037001e0278009a
:1050c800050020000400be0045f207000002be00f3
:1050d80002002400c36124000400be0023f107007d
:1050e8000002be0094958800a59588007486270064
:1050f800144278008482fb008486270014427800da
:105108000482fb004822dd0004827200040f78004c
:105118001e027800e00f520011003d001e027800c8
:105128006123b80004002000f5ff2f0006024200aa
:1051380087824a000400be0026f207000002be0073
:1051480002002400c36124000400be0007f1070028
:105158000002be00b4958800c59588000c00370091
:105168001e027800050020000400be001cf20700a3
:105178000002be0002002400c36124000400be0037
:10518800faf007000002be00b4958800c5958800b3
:1051980094862700144278008482fb00a4862700a6
:1051a800144278000482fb004822dd000482720069
:1051b800040f78001e027800e00f520011003d0035
:1051c8001e0278006123b80004002000f5ff2f00bc
:1051d8000602420087824a000400be00fdf1070073
:1051e8000002be0002002000a34724000400be0005
:1051f800def007000002be00d4958800e59588001f
:105208000c0037001e027800050020000400be00d4
:10521800f3f107000002be0002002000a3472400ab
:105228000400be00d1f007000002be00d49588003b
:10523800e5958800b4862700144278008482fb0034
:10524800c4862700144278000482fb004822dd004f
:1052580004827200040f78001e027800e00f5200ea
:1052680011003d001e0278006123b80004002000f0
:10527800f5ff2f000602420087824a000400be00a4
:10528800d4f107000002be0002002000832c240095
:105298000400be00b5f007000002be00f4958800c7
:1052a800059688000c0037001e02780005002000d3
:1052b8000400be00caf107000002be000200200080
:1052c800832c24000400be00a8f007000002be00e2
:1052d800f495880005968800952e210014c0b30027
:1052e800844a78000080fa00000006000800fa00ee
:1052f800881f7800149080002590800018c0b300a3
:105308006011b8000400be0074f1070000027800c4
:10531800e00f520001003d000044eb00e04f540054
:105328000d003200149080002590800002002000bb
:10533800031224000400be002af207000002be0087
:105348000400be0067f107000002be0004027800f6
:10535800040f78000c00370014908000259080001e
:1053680002002000031224000400be001df2070002
:105378000002be000400be005af107000002be0091
:1053880004027800040f78001e02780004427800b6
:1053980055892700844a78001e0278004822de00da
:1053a8000442780065892700844a78005490800078
:1053b8006590800018c0b3006011b8000400be00fa
:1053c80046f1070000027800e00f520001003d009e
:1053d8000044eb00e04f54000c0032005490800071
:1053e8006590800002002000031224000400be0023
:1053f800fcf107000002be000400be005af10700dd
:105408000002be00040f78000c00370054908000a2
:105418006590800002002000031224000400be00f2
:10542800f0f107000002be000400be002df10700e5
:105438000002be0004027800040f78001e02780003
:105448000442780075892700844a78001e02780093
:105458004822de000442780085892700844a7800c3
:10546800349080004590800018c0b3006011b800e7
:105478000400be0019f1070000027800e00f520096
:1054880001003d000044eb00e04f54000c003200e6
:105498003490800045908000020020000312240010
:1054a8000400be00cff107000002be000400be00e9
:1054b8002df107000002be00040f78000c00370031
:1054c80034908000459080000200200003122400e0
:1054d8000400be00c3f107000002be000400be00c5
:1054e80000f107000002be0004027800040f7800f3
:1054f8001e0278000442780095892700844a7800c3
:105508001e0278004822de0004427800a5892700a0
:10551800844a7800749080008590800018c0b30099
:105528006011b8000400be00ecf00700000278002b
:10553800e00f520001003d000044eb00e04f540032
:105548000c003200749080008590800002002000da
:10555800031224000400be00a2f107000002be00ee
:105568000400be0000f107000002be00040f78002e
:105578000c003700749080008590800002002000a5
:10558800031224000400be0096f107000002be00ca
:105598000400be00d3f007000002be000402780039
:1055a800040f78001e02780004427800b5892700ad
:1055b800844a78001e0278004822de0004427800ff
:1055c800c5892700844a780034918000459180007d
:1055d80018c0b3006011b8000400be00bff0070097
:1055e80000027800e00f520001003d000044eb008b
:1055f800e04f54000c003200349180004591800047
:1056080002002000031224000400be0075f1070008
:105618000002be000400be00d3f007000002be0076
:10562800040f78000c003700349180004591800009
:1056380002002000031224000400be0069f10700e4
:105648000002be000400be00a6f007000002be0073
:1056580004027800040f78001e02780004427800e3
:10566800d5892700844a78001e0278004822de0087
:1056780004427800e5892700844a780094908000e5
:10568800a590800018c0b3006011b8000400be00e7
:1056980092f0070000027800e00f520001003d0080
:1056a8000044eb00e04f54000c003200949080005e
:1056b800a590800002002000031224000400be0010
:1056c80048f107000002be000400be00a6f0070073
:1056d8000002be00040f78000c0037009490800090
:1056e800a590800002002000031224000400be00e0
:1056f8003cf107000002be000400be0079f007007c
:105708000002be0004027800040f78001e02780030
:1057180004427800f5892700844a78001e02780040
:105728004822de0004427800058a2700844a78006f
:10573800b4908000c590800018c0b3006011b80014
:105748000400be0065f0070000027800e00f520078
:1057580001003d000044eb00e04f54000c00320013
:10576800b4908000c590800002002000031224003d
:105778000400be001bf107000002be000400be00ca
:1057880079f007000002be00040f78000c00370013
:10579800b4908000c590800002002000031224000d
:1057a8000400be000ff107000002be000400be00a6
:1057b8004cf007000002be0004027800040f7800d5
:1057c8001e02780004427800158a2700844a78006f
:1057d8001e0278004822de0004427800258a27004d
:1057e800844a7800f49080000591800018c0b300c6
:1057f8006011b8000400be0038f00700000278000d
:10580800e00f520001003d000044eb00e04f54005f
:105818000c003200f4908000059180000200200006
:10582800031224000400be00eef007000002be00d0
:105838000400be004cf007000002be00040f780010
:105848000c003700f49080000591800002002000d1
:10585800031224000400be00e2f007000002be00ac
:105868000400be001ff007000002be00040278001a
:10587800040f78001e02780004427800358a270059
:10588800844a78001e0278004822de00044278002c
:10589800458a2700844a78006496800075968000bf
:1058a80018c0b3006011b8000400be000bf0070078
:1058b80000027800e00f520001003d000044eb00b8
:1058c800e04f54000c00320064968000759680000a
:1058d80002002000031224000400be00c1f00700eb
:1058e8000002be000400be001ff007000002be0058
:1058f800040f78000c0037006496800075968000cd
:1059080002002000031224000400be00b5f00700c6
:105918000002be000400be00f2ef07000002be0055
:1059280004027800040f78001e0278000442780010
:10593800558a2700844a78001e0278004822de0033
:1059480004427800658a2700844a7800e49280003f
:10595800f592800002002000031224000400be001b
:10596800a0f007000002be000400be00feef070022
:105978000002be00040f78001e027800044278007e
:10598800758a2700844a78001e0278004822de00c3
:1059980004427800858a2700844a7800748a2700a0
:1059a80014427800558d2700844a7800848a27009d
:1059b80014427800658d2700844a7800049380009b
:1059c8001593800002002000031224000400be008a
:1059d80084f007000002be000400be00e2ef0700ea
:1059e8000002be00040f78001e027800044278000e
:1059f800958a2700844a78001e0278004822de0033
:105a080004427800a58a2700844a7800948a2700ef
:105a180014427800758d2700844a7800a48a2700ec
:105a280014427800858d2700844a780024938000ea
:105a38003593800002002000031224000400be00f9
:105a480068f007000002be000400be00c6ef0700b1
:105a58000002be00040f78001e027800044278009d
:105a6800b58a2700844a78001e0278004822de00a2
:105a780004427800c58a2700844a7800b48a27003f
:105a880014427800958d2700844a7800c48a27003c
:105a980014427800a58d2700844a7800449380003a
:105aa8005593800002002000031224000400be0069
:105ab8004cf007000002be000400be00aaef070079
:105ac8000002be00040f78001e027800044278002d
:105ad800d58a2700844a78001e0278004822de0012
:105ae80004427800e58a2700844a7800d48a27008f
:105af80014427800b58d2700844a7800e48a27008c
:105b080014427800c58d2700844a7800c4262100f5
:105b18001402780004427800f58a2700844a780045
:105b2800c4262100140278004822de0004427800ce
:105b3800058b2700844a7800f48a270014427800ed
:105b4800d58d2700844a7800048b270014427800fa
:105b5800e58d2700844a7800c426210014029000ad
:105b680004427800158b2700844a7800c426210057
:105b7800140290004822de0004427800258b27009a
:105b8800844a7800148b270014427800f58d27008a
:105b9800844a7800248b270014427800058e270059
:105ba800844a7800c4262100240290000442780028
:105bb800358b2700844a7800c426210024029000ef
:105bc8004822de0004427800458b2700844a78008a
:105bd800348b270014427800158e2700844a7800f9
:105be800448b270014427800258e2700844a7800c9
:105bf800c42621003402900004427800558b270007
:105c0800844a7800c4262100340290004822de002d
:105c180004427800658b2700844a7800548b27005b
:105c280014427800358e2700844a7800648b270058
:105c380014427800458e2700844a780074978000c3
:105c480004427800758b2700844a78008497800086
